:100000008316FF2390008312FD2B00308A00040822
:10001000840A82070034683465346C346C346F347D
:020020000034AA
:1007320083120514831605100800A62B23088400D3
:100742000520CA2301308312A307831223088400E1
:100752000520003A031DAE2BAF2B9F2B08008316FA
:100762009F01073083129900992301308312A3005D
:100772009E2306308312A6001330A500AD30A400DC
:10078200A40BC12BA50BC12BA60BC12BC82BB62BBF
:1007920000288312A1000510A630A000D02BA00BC8
:1007A200CF2BD32B8312A2012108A000220ADB2B1C
:1007B2000310A00CFF3E031DD92B2018E12BE42BC4
:1007C20083120514E62B83120510A630A000E92B34
:1007D200A00BE82BEC2B01308312A2070830220277
:1007E200031CF42BF52BD52B0514A630A000F92BF6
:0C07F200A00BF82BFC2B08008301B02B9F
:00000001FF
