:02000000FD2BD6
:1007680083120514831685160510080083169F0149
:1007780083129F0107309900831699012030850064
:1007880083128501B4234130CB23C72B0028831261
:10079800A1000510A630A000D12BA00BD02BD42B84
:1007A8008312A2012108A000220ADC2B0310A00C4E
:1007B800FF3E031DDA2B201CE22BE32BE52B05144F
:1007C800E62B0510A630A000E92BA00BE82BEC2B9C
:1007D80001308312A20708302202031CF42BF52BE8
:1007E800D62B0514A630A000F92BA00BF82BFC2B58
:0607F80008008301BA2B8A
:00000001FF
