:0A0000008316FF2390008301832B79
:1007060083018A2B051483168514051008008316A9
:100716009F0183129F0107309900831699010830C3
:100726008500831285018523C6238312A30023082F
:100736009D23972BA100D0300510A0006400A00BCC
:10074600A12B8312A2012108A000220AAC2B0310C0
:10075600A00CFF3E031DAA2B201CB32B0514B42BA3
:100766000510D030A0006400A00BB62B0830831211
:10077600A20A2202031CA62BD0300514A000640096
:10078600A00BC22B08008312A1018518C82BD030FC
:10079600A0006400A00BCC2B8A308312A000A00B13
:1007A600D22B64008312A201851CE42B0130A00029
:1007B600220ADF2B0310A00DFF3E031DDD2B2008B0
:1007C600A107D030A0006400A00BE62B08308312EE
:1007D600A20A2202031CD72B851CF92B8A30A00003
:1007E600A00BF32B64008312210808008A30A000B6
:0807F600A00BFB2B6400003492
:02400E00C431BB
:00000001FF
