:0A0000008316FF2390008312FD2BEE
:1007440083120514831685140510080083169F016F
:1007540083129F01073099008316990108308500A0
:1007640083128501A2236230C22307308312A500BD
:100774007D30A400A40BBC2BA50BBC2BB52B0028EF
:100784008312A20005100630A1006730A000A00B60
:10079400C92BA10BC92B00008312A3012208A000BE
:1007A400230AD62B0310A00CFF3E031DD42B201CC0
:1007B400DC2BDD2BDF2B0514E02B05100630A1000C
:1007C4006730A000A00BE42BA10BE42B0000013048
:1007D4008312A30708302302031CF12BF22BD02B26
:1007E40005140630A1006730A000A00BF72BA10B65
:0A07F400F72B000008008301A82B7A
:00000001FF
