:02000000FD2BD6
:1006DC0083120514831685140510080083169F01D8
:1006EC0083129F0107309900831699010830850009
:1006FC00831285016E23B82341308623812B002879
:10070C008312A1000510A630A0008C2BA00B8B2B04
:10071C008F2B8312A2012108A000220A972B031011
:10072C00A00CFF3E031D952B201C9D2B9E2BA02B5C
:10073C000514A12B0510A630A000A42BA00BA32BF5
:10074C00A72B01308312A20708302202031CAF2B07
:10075C00B02B912B0514A630A000B42BA00BB32BFF
:10076C00B72B08008312A1018518BD2BBE2BBA2B09
:10077C00A630A000C12BA00BC02BC42B8A30831237
:10078C00A000A00BC72B00008312A201851CCF2B4D
:10079C00D02BDB2B0130A000220AD62B0310A00D8E
:1007AC00FF3E031DD42B2008A107A630A000DE2B92
:1007BC00A00BDD2BE12B01308312A20708302202A3
:1007CC00031CE92BEA2BCC2B851CED2BEE2BF62BEB
:1007DC008A30A000A00BF02B000083122108FC2B08
:1007EC008A30A000A00BF82B000000300800830119
:0207FC00742B5C
:00000001FF
